:040000001BEF02F000
:08000800046ED8CF05F0E0CF33
:1000100006F00001E9CF0CF0EACF07F0E1CF08F0DD
:10002000E2CF09F0D9CF0AF0DACF0BF0F3CF12F01C
:10003000F4CF13F0FACF14F000C00EF001C00FF0AF
:1000400002C010F003C011F09DA02AEF00F09EB096
:1000500095EF01F0F2A630EF00F0F2B087EF00F07C
:100060000EC000F00FC001F010C002F011C003F08C
:100070000CC0E9FF07C0EAFF078E08C0E1FF09C016
:10008000E2FF0AC0D9FF0BC0DAFF12C0F3FF13C0B2
:10009000F4FF14C0FAFF045006C0E0FF05C0D8FF0B
:1000A00010004650070B006E4630016E01320132DF
:1000B0001F0E011601504824E96E000E4920EA6E19
:1000C000016A012A002A01D00136002EFDD74752CD
:1000D00003E00150EF1203D0011E0150EF16000C97
:1000E0004650070B006E4630016E013201321F0E82
:1000F000011601504724E96E000E4820EA6EEFCF4A
:1001000001F0002A01D00132002EFDD7000C3F6A19
:100110003F500308D8A006D13F50070DF350436A63
:10012000426E1A0E4224016E000E4320036E01C07F
:1001300042F0436E3F50070DF350456A446E1A0E6D
:100140004424E96E000E4520EA6E406AEFB0402A72
:1001500040B006D043C0EAFF42C0E9FFEF9205D0AD
:1001600043C0EAFF42C0E9FFEF823F50070DF35062
:10017000436A426E1A0E4224016E000E4320036E43
:1001800001C042F0436E3F50070DF350456A446E84
:10019000010E4424016E000E4520036E01501A0F1B
:1001A000E96E000E0320EA6EECCF45F0ED52EFCF82
:1001B00044F044C046F0010E476E0F0E496E920E99
:1001C000486E6FDF44C046F00F0E486E800E476EDB
:1001D00087DF416A01B0412A41B006D043C0EAFF3F
:1001E00042C0E9FFEF9005D043C0EAFF42C0E9FFFB
:1001F000EF804150405CD8B493D03F5202E03F2C96
:1002000001D019803F50070DF350436A426E1A0E19
:100210004224E96E000E4320EA6E000EEFB0010E9C
:10022000010B010857E13F50070DF350436A426E3E
:10023000050E4224016E000E4320036E01501A0F7A
:10024000E96E000E0320EA6EEF5230E13F5203E107
:100250000E0EBE6E182A3F50070DF350436A426ED1
:10026000030E4224016E000E4320036E01501A0F4C
:10027000E96E000E0320EA6EECCF43F0ED52EFCFB3
:1002800042F042C046F0010E476E0F0E496E890ED5
:10029000486E07DF42C046F0476A0F0E496E920E65
:1002A000486EFFDE93908A8093908A903F50070DAE
:1002B000F350436A426E050E4224016E000E432045
:1002C000036E01501A0FE96E000E0320EA6E010E54
:1002D000EF6E26D03F50070DF350436A426E060E74
:1002E0004224016E000E4320036E01501A0FE96E86
:1002F000000E0320EA6E17C0EFFF3F50070DF350CA
:10030000436A426E050E4224016E000E4320036EC6
:1003100001501A0FE96E000E0320EA6E020EEF6E16
:100320003F2AF6D6F29030EF00F0172A3F6A3F508E
:10033000030870E33F50070DF350416A406E050E0D
:100340004024016E000E4120036E01501A0FE96E29
:10035000000E0320EA6EEF5002085AE13F50070DED
:10036000F350416A406E060E4024016E000E41209B
:10037000036E01501A0FE96E000E0320EA6EEF5073
:10038000175C020845E23F50070DF350416A406E8A
:10039000030E4024016E000E4120036E01501A0F1F
:1003A000E96E000E0320EA6EECCF41F0ED52EFCF84
:1003B00040F040C046F0476A0F0E496E890E486E05
:1003C00070DE40C046F0476A0F0E496E920E486ECE
:1003D00068DE3F2C07D0185201E01806185202E1DF
:1003E000070EBE6E3F50070DF350416A406E050E7A
:1003F0004024016E000E4120036E01501A0FE96E79
:10040000000E0320EA6EEF6A93908A8093908A90A0
:100410003F2A8DD79E9030EF00F0EA6A380EE96EE1
:10042000EF5007E0280E006E002EFED70000EF2EE2
:10043000F9D717EF03F0F86AD09E078EEA6AE96AE7
:10044000300ED36ED350C150C00B0F09C16E070ED2
:10045000B46E320ED36E800E9B6ED350C150C00B63
:100460000F09C16EC090C092C094C09EC280C69A4F
:10047000949E93809392010EC66E000EC76ED1902B
:10048000800ED56E850ECD6E000E0609CA6E9B0ECF
:10049000CB6EB16A94948B940C0EBD6E0E0EBE6E34
:1004A000070EB46E9250926E0000B450A19CB56AD3
:1004B000176A186A19907C0E1C6E0C0E1B6E7C0E4F
:1004C0001E6E1D6A236E0D0E226E7C0E256E010EB1
:1004D000246E7C0E2A6E0E0E296E7C0E2C6E020E81
:1004E0002B6E7C0E316E0F0E306E7C0E336E030E53
:1004F000326E366A36500308D8A090D03650070DB9
:10050000F350386A376E1A0E3724E96E000E382021
:10051000EA6EEF923650070DF350386A376E1A0EB6
:100520003724E96E000E3820EA6EEF903650070D42
:10053000F350386A376E050E3724016E000E3820EE
:10054000036E01501A0FE96E000E0320EA6EEF6A87
:100550003650070DF350386A376E010E3724016E9E
:10056000000E3820036E01501A0FE96E000E0320B2
:10057000EA6EECCF38F0ED52EFCF37F0166AF2BEEC
:10058000168EF29E37C046F0010E476E0F0E496E72
:10059000920E486E86DD16BEF28E166AF2BE168E7A
:1005A000F29E37C046F00F0E486E800E476E98DD03
:1005B00016BEF28E3650070DF350386A376E030EB2
:1005C0003724016E000E3820036E01501A0FE96EB9
:1005D000000E0320EA6EECCF38F0ED52EFCF37F08B
:1005E000166AF2BE168EF29E37C046F0476A0F0EAC
:1005F000496E890E486E55DD16BEF28E166AF2BE41
:10060000168EF29E37C046F0476A0F0E496E920E64
:10061000486E47DD16BEF28E362A6CD79D80F28674
:10062000C00EF212280E376EFA0E386EF6D6372E3E
:0E063000FBD719B002D0070EBE6EFFD7030035
:020000040030CA
:0E0000000008160E000181000FC00FE00F4037
:00000001FF
;PIC18F2550
;CRC=31ED  CREATED="12-abr-11 10:03"
